S0110000455854495F746573742E73726563BA
S11300000C942A000C945F010C9488010C94B101A7
S11300100C9447000C9447000C9447000C94470040
S11300200C9447000C9447000C9447000C94470030
S11300300C9447000C9447000C9447000C94470020
S11300400C9447000C9447000C9447000C94470010
S11300500C94470011241FBECFE5D8E0DEBFCDBF0E
S113006010E0A0E6B0E0E8E1F4E002C005900D92F3
S1130070AA37B107D9F720E0AAE7B0E001C01D9282
S1130080A038B207E1F70E94EA010C940A020C942A
S11300900000883070F028EF280F283058F020EF47
S11300A0280F283038F028EE280F283018F02FEFCA
S11300B001C0282F883068F098EF980F983058F0D6
S11300C090EF980F983048F08851883040F483E0DE
S11300D007C080E005C081E003C082E001C08FEF6B
S11300E090E0FC01EE0FFF1FDF01A80FB91FAA0F5C
S11300F0BB1FA05ABF4F12960D90BC91A02DE80FC4
S1130100F91FEE0FFF1FE05AFF4F0190F081E02D21
S1130110613081F018F06230C1F008953C9181E0C3
S113012090E002C0880F991F2A95E2F780958323F7
S11301308C9308953C9181E090E002C0880F991F50
S11301402A95E2F7832B8C930895308181E090E027
S113015002C0880F991F2A95E2F7932F982B90835A
S11301609C91809589238C93089590E0FC01EE0F77
S1130170FF1FDF01A80FB91FAA0FBB1FA05ABF4F53
S113018012960D90BC91A02DE80FF91FEE0FFF1FE2
S1130190E05AFF4F0190F081E02D613031F018F00A
S11301A0623031F008951C9208958FEF8C93089576
S11301B08FEF80831C92089590E0FC01EE0FFF1FE7
S11301C0E80FF91FEE0FFF1FE05AFF4F0190F08177
S11301D0E02D608308958230C0F490E0880F991F69
S11301E023E030E0082E02C0220F331F0A94E2F706
S11301F0209595B7292370E002C0660F771F8A9572
S1130200E2F7622B65BF80E00895623058F084B74E
S11302108F7B60FD02C090E401C090E0892B84BF15
S113022080E0089581E00895813041F018F0823033
S113023049F008958BB780648BBF08958BB78068AD
S11302408BBF08958BB780628BBF089561157105CC
S1130250C1F0813051F018F0823069F014C070930D
S11302607F0060937E0080E0089570937D0060932A
S11302707C0080E0089570937B0060937A0080E0B6
S1130280089582E0089580E008950F931F93CF931B
S1130290C82F8A010E94EB0081110AC08C2F0E9492
S11302A01401B8018C2F0E942601811103C003C0E0
S11302B081E001C082E0CF911F910F9108951F92B8
S11302C00F920FB60F9211242F933F934F935F9386
S11302D06F937F938F939F93AF93BF93EF93FF930A
S11302E0E0917E00F0917F00309709F00995FF912D
S11302F0EF91BF91AF919F918F917F916F915F919A
S11303004F913F912F910F900FBE0F901F90189512
S11303101F920F920FB60F9211242F933F934F9376
S11303205F936F937F938F939F93AF93BF93EF9359
S1130330FF93E0917C00F0917D00309709F00995DE
S1130340FF91EF91BF91AF919F918F917F916F91A9
S11303505F914F913F912F910F900FBE0F901F907F
S113036018951F920F920FB60F9211242F933F935B
S11303704F935F936F937F938F939F93AF93BF93A9
S1130380EF93FF93E0917A00F0917B00309709F0AE
S11303900995FF91EF91BF91AF919F918F917F91BB
S11303A06F915F914F913F912F910F900FBE0F90DE
S11303B01F9018958FB780688FBF0895809178003B
S11303C08F5F8093780008958091780081508093A6
S11303D07800089562E08AE10E94490062E08BE1BE
S11303E00E94490061E080E00E94B5000E94DA01A9
S11303F04EED51E063E080E00E94450144EE51E09F
S113040063E081E00E9445016091780080E00E94F1
S10B0410DC00FACFF894FFCFE1
S11304183B003A0039003800370036003500340014
S10D04283300320031003000FF0001
S9030000FC
