S013000053575F50574D5F746573742E73726563F5
S11300000C942A000C9447000C9447000C9447006D
S11300100C943A020C9411020C9447000C9447007F
S11300200C9447000C9447000C94E8010C94BF0115
S11300300C9447000C9447000C9447000C94470020
S11300400C9447000C9447000C9447000C94470010
S11300500C94470011241FBECFE5D8E0DEBFCDBF0E
S113006010E0A0E6B0E0EAECF4E002C005900D92E6
S1130070A837B107D9F720E0A8E7B0E001C01D9286
S1130080A138B207E1F70E942A010C9463020C9490
S11300900000883070F028EF280F283058F020EF47
S11300A0280F283038F028EE280F283018F02FEFCA
S11300B001C0282F883068F098EF980F983058F0D6
S11300C090EF980F983048F08851883040F483E0DE
S11300D007C080E005C081E003C082E001C08FEF6B
S11300E090E0FC01EE0FFF1FDF01A80FB91FAA0F5C
S11300F0BB1FA05ABF4F12960D90BC91A02DE80FC4
S1130100F91FEE0FFF1FE05AFF4F0190F081E02D21
S1130110613081F018F06230C1F008953C9181E0C3
S113012090E002C0880F991F2A95E2F780958323F7
S11301308C9308953C9181E090E002C0880F991F50
S11301402A95E2F7832B8C930895308181E090E027
S113015002C0880F991F2A95E2F7932F982B90835A
S11301609C91809589238C930895883070F028EFB2
S1130170280F283058F020EF280F283038F028EEC8
S1130180280F283018F02FEF01C0282F883068F08E
S113019098EF980F983058F090EF980F983048F0F7
S11301A08851883040F483E007C080E005C081E0D6
S11301B003C082E001C08FEF90E0FC01EE0FFF1F4F
S11301C0E80FF91FEE0FFF1FE05AFF4F0190F08177
S11301D0E02D613081F018F06230C1F00895308173
S11301E081E090E002C0880F991F2A95E2F780957C
S11301F0832380830895308181E090E002C0880FDA
S1130200991F2A95E2F7832B80830895308181E03A
S113021090E002C0880F991F2A95E2F78327808314
S113022008958FB780688FBF0895809178008F5F9D
S113023080937800823029F460E080E00E94B50069
S113024008958A3031F461E080E00E94B500109294
S11302507800089561E080E00E94490061E080E058
S11302600E94B5000E94110142E062E080E00E9419
S11302708F0165E171E080E00E949C016AEF80E0FB
S11302800E94B601FFCF882319F0813031F0089520
S113029083B7887F682B63BF089585B5887F682BF3
S11302A065BD0895882319F08130E9F0089583B776
S11302B0877BA62FA170B0E00024B695A79507947C
S11302C0B695A7950794BA2FA02D61FB442740F952
S11302D050E0440F551F440F551F440F551F4A2B20
S11302E0482B43BF089585B5877BE62FE170F0E086
S11302F00024F695E7950794F695E7950794FE2F65
S1130300E02D61FB222720F930E0220F331F220F5A
S1130310331F220F331F2E2B282B25BD0895CF9377
S1130320DF93C82FD42F0E9443016D2F8C2F0E947E
S11303305201DF91CF91089561157105B1F08823C1
S113034019F0813051F0089589B782608E7F89BF9A
S113035070937A0060937900089589B780688F7BE1
S113036089BF70937C0060937B000895882319F003
S1130370813019F008956CBF089563BD08951F92EC
S11303800F920FB60F9211242F933F934F935F93C5
S11303906F937F938F939F93AF93BF93EF93FF9349
S11303A0E0917D00F0917E00309709F00995FF916E
S11303B0EF91BF91AF919F918F917F916F915F91D9
S11303C04F913F912F910F900FBE0F901F90189552
S11303D01F920F920FB60F9211242F933F934F93B6
S11303E05F936F937F938F939F93AF93BF93EF9399
S11303F0FF93E0917900F0917A00309709F0099524
S1130400FF91EF91BF91AF919F918F917F916F91E8
S11304105F914F913F912F910F900FBE0F901F90BE
S113042018951F920F920FB60F9211242F933F939A
S11304304F935F936F937F938F939F93AF93BF93E8
S1130440EF93FF93E0917F00F0918000309709F0E3
S11304500995FF91EF91BF91AF919F918F917F91FA
S11304606F915F914F913F912F910F900FBE0F901D
S11304701F9018951F920F920FB60F9211242F936D
S11304803F934F935F936F937F938F939F93AF9318
S1130490BF93EF93FF93E0917B00F0917C00309742
S11304A009F00995FF91EF91BF91AF919F918F91C1
S11304B07F916F915F914F913F912F910F900FBE5C
S10D04C00F901F901895F894FFCFD9
S11304CA3B003A0039003800370036003500340062
S10B04DA330032003100300050
S9030000FC
