S01E0000746F67676C65206C656420776974682074696D6572302E73726563E2
S11300000C942A000C9447000C9447000C9447006D
S11300100C9465020C943C020C9447000C94470029
S11300200C9447000C9447000C9413020C94EA01BE
S11300300C9447000C9447000C9447000C94470020
S11300400C9447000C9447000C9447000C94470010
S11300500C94470011241FBECFE5D8E0DEBFCDBF0E
S113006010E0A0E6B0E0E0E2F5E002C005900D92F9
S1130070A837B107D9F720E0A8E7B0E001C01D9286
S1130080A438B207E1F70E9447010C948E020C9445
S11300900000883070F028EF280F283058F020EF47
S11300A0280F283038F028EE280F283018F02FEFCA
S11300B001C0282F883068F098EF980F983058F0D6
S11300C090EF980F983048F08851883040F483E0DE
S11300D007C080E005C081E003C082E001C08FEF6B
S11300E090E0FC01EE0FFF1FDF01A80FB91FAA0F5C
S11300F0BB1FA05ABF4F12960D90BC91A02DE80FC4
S1130100F91FEE0FFF1FE05AFF4F0190F081E02D21
S1130110613081F018F06230C1F008953C9181E0C3
S113012090E002C0880F991F2A95E2F780958323F7
S11301308C9308953C9181E090E002C0880F991F50
S11301402A95E2F7832B8C930895308181E090E027
S113015002C0880F991F2A95E2F7932F982B90835A
S11301609C91809589238C930895883070F028EFB2
S1130170280F283058F020EF280F283038F028EEC8
S1130180280F283018F02FEF01C0282F883068F08E
S113019098EF980F983058F090EF980F983048F0F7
S11301A08851883040F483E007C080E005C081E0D6
S11301B003C082E001C08FEF90E0FC01EE0FFF1F4F
S11301C0E80FF91FEE0FFF1FE05AFF4F0190F08177
S11301D0E02D613081F018F06230C1F00895308173
S11301E081E090E002C0880F991F2A95E2F780957C
S11301F0832380830895308181E090E002C0880FDA
S1130200991F2A95E2F7832B80830895308181E03A
S113021090E002C0880F991F2A95E2F78327808314
S113022008958FB780688FBF089580917A00909168
S11302307B00803D974041F410927B0010927A003D
S113024062E080E00E94B50080917A0090917B008A
S1130250019690937B0080937A00089580917800B2
S113026090917900803A9F4041F410927900109265
S1130270780062E081E00E94B5008091780090915E
S1130280790001969093790080937800089561E055
S113029080E00E94490042E061E080E00E94BA01EF
S11302A065E171E080E00E94C7016AEF80E00E948E
S11302B0E10161E081E00E94490042E061E081E007
S11302C00E94BA016EE271E081E00E94C7016AEF08
S11302D081E00E94E1010E941101FFCF882319F0FF
S11302E0813031F0089583B7887F682B63BF089508
S11302F085B5887F682B65BD0895882319F0813002
S1130300E9F0089583B7877BA62FA170B0E000249D
S1130310B695A7950794B695A7950794BA2FA02DDF
S113032061FB442740F950E0440F551F440F551F0B
S1130330440F551F4A2B482B43BF089585B5877B2F
S1130340E62FE170F0E00024F695E7950794F69522
S1130350E7950794FE2FE02D61FB222720F930E07A
S1130360220F331F220F331F220F331F2E2B282B54
S113037025BD0895CF93DF93C82FD42F0E946E011B
S11303806D2F8C2F0E947D01DF91CF91089561150F
S11303907105B1F0882319F0813051F0089589B7BF
S11303A082608E7F89BF70937D0060937C00089586
S11303B089B780688F7B89BF70937F0060937E00CC
S11303C00895882319F0813019F008956CBF0895B9
S11303D063BD08951F920F920FB60F9211242F93AD
S11303E03F934F935F936F937F938F939F93AF93B9
S11303F0BF93EF93FF93E0918000F09181003097D9
S113040009F00995FF91EF91BF91AF919F918F9161
S11304107F916F915F914F913F912F910F900FBEFC
S11304200F901F9018951F920F920FB60F921124E0
S11304302F933F934F935F936F937F938F939F93E8
S1130440AF93BF93EF93FF93E0917C00F0917D0015
S1130450309709F00995FF91EF91BF91AF919F916A
S11304608F917F916F915F914F913F912F910F9059
S11304700FBE0F901F9018951F920F920FB60F92F8
S113048011242F933F934F935F936F937F938F9395
S11304909F93AF93BF93EF93FF93E0918200F0910A
S11304A08300309709F00995FF91EF91BF91AF91C7
S11304B09F918F917F916F915F914F913F912F9178
S11304C00F900FBE0F901F9018951F920F920FB6AA
S11304D00F9211242F933F934F935F936F937F93C6
S11304E08F939F93AF93BF93EF93FF93E0917E001D
S11304F0F0917F00309709F00995FF91EF91BF913A
S1130500AF919F918F917F916F915F914F913F91A7
S11305102F910F900FBE0F901F901895F894FFCF56
S11305203B003A003900380037003600350034000B
S10B05303300320031003000F9
S9030000FC
