:100000000C942A000C9447000C9447000C94470071
:100010000C9447000C9447000C9447000C94470044
:100020000C9447000C9447000C9449010C94720105
:100030000C9447000C9447000C9447000C94470024
:100040000C9447000C9447000C9447000C94470014
:100050000C94470011241FBECFE5D8E0DEBFCDBF12
:1000600010E0A0E6B0E0EAE3F3E002C005900D92F4
:10007000A837B107D9F720E0A8E7B0E001C01D928A
:10008000AE37B207E1F70E942E010C949B010C944D
:100090000000883070F028EF280F283058F020EF4B
:1000A000280F283038F028EE280F283018F02FEFCE
:1000B00001C0282F883068F098EF980F983058F0DA
:1000C00090EF980F983048F08851883040F483E0E2
:1000D00007C080E005C081E003C082E001C08FEF6F
:1000E00090E0FC01EE0FFF1FDF01A80FB91FAA0F60
:1000F000BB1FA05ABF4F12960D90BC91A02DE80FC8
:10010000F91FEE0FFF1FE05AFF4F0190F081E02D25
:10011000613081F018F06230C1F008953C9181E0C7
:1001200090E002C0880F991F2A95E2F780958323FB
:100130008C9308953C9181E090E002C0880F991F54
:100140002A95E2F7832B8C930895308181E090E02B
:1001500002C0880F991F2A95E2F7932F982B90835E
:100160009C91809589238C930895883070F028EFB6
:10017000280F283058F020EF280F283038F028EECC
:10018000280F283018F02FEF01C0282F883068F092
:1001900098EF980F983058F090EF980F983048F0FB
:1001A0008851883040F483E007C080E005C081E0DA
:1001B00003C082E001C08FEF90E0FC01EE0FFF1F53
:1001C000E80FF91FEE0FFF1FE05AFF4F0190F0817B
:1001D000E02D613081F018F06230C1F00895308177
:1001E00081E090E002C0880F991F2A95E2F7809580
:1001F000832380830895308181E090E002C0880FDE
:10020000991F2A95E2F7832B80830895308181E03E
:1002100090E002C0880F991F2A95E2F78327808318
:1002200008958FB780688FBF08958091780090916E
:100230007900803A9F4041F4109279001092780042
:1002400062E080E00E94B500809178009091790092
:1002500001969093790080937800089561E080E0A2
:100260000E9449000E943D0185E191E00E94400109
:100270008AEF8CBF0E941101FFCF81E083BF0895F8
:1002800029B722602E7F29BF90937D0080937C0048
:1002900008951F920F920FB60F9211242F933F9340
:1002A0004F935F936F937F938F939F93AF93BF937E
:1002B000EF93FF93E0917C00F0917D00309709F07F
:1002C0000995FF91EF91BF91AF919F918F917F9190
:1002D0006F915F914F913F912F910F900FBE0F90B3
:1002E0001F9018951F920F920FB60F9211242F9303
:1002F0003F934F935F936F937F938F939F93AF93AE
:10030000BF93EF93FF93E0917A00F0917B003097D9
:1003100009F00995FF91EF91BF91AF919F918F9156
:100320007F916F915F914F913F912F910F900FBEF1
:0A0330000F901F901895F894FFCF6E
:10033A003B003A00390038003700360035003400F7
:08034A003300320031003000E5
:00000001FF
