:100000000C942A000C9447000C9447000C94470071
:100010000C9495020C9462020C9447000C944700D7
:100020000C9447000C9447000C942F020C94FC0194
:100030000C9447000C9447000C9447000C94470024
:100040000C9447000C9447000C9447000C94470014
:100050000C94470011241FBECFE5D8E0DEBFCDBF12
:1000600010E0A0E6B0E0E8ECFDE002C005900D92E3
:10007000A838B107D9F710E0A8E8B0E001C01D9298
:10008000A63AB107E1F70E9422060C94E2060C940E
:100090000000DF93CF9300D000D0CDB7DEB78983C7
:1000A0006A838981282F30E03C832B838B819C815C
:1000B000009731F02B813C812130310589F01FC040
:1000C000A3E5B0E0E3E5F0E08081887F8C93A3E5D1
:1000D000B0E0E3E5F0E090818A81892B8C930FC03A
:1000E000A5E4B0E0E5E4F0E08081887F8C93A5E4AE
:1000F000B0E0E5E4F0E090818A81892B8C930F9049
:100100000F900F900F90CF91DF910895DF93CF93D1
:1001100000D000D0CDB7DEB789836A838981282FCC
:1001200030E03C832B838B819C81009731F02B81C5
:100130003C812130310569F157C0A3E5B0E0E3E52A
:10014000F0E08081877B8C93A3E5B0E0E3E5F0E00D
:100150008081382F8A81882F90E0817090700024F0
:10016000969587950794969587950794982F802D57
:10017000282F8A818695882F90E081709070880F53
:10018000991F880F991F880F991F822B832B8C939F
:100190002BC0A5E4B0E0E5E4F0E08081877B8C93A0
:1001A000A5E4B0E0E5E4F0E08081382F8A81882F73
:1001B00090E08170907000249695879507949695AD
:1001C00087950794982F802D282F8A818695882FD0
:1001D00090E081709070880F991F880F991F880F89
:1001E000991F822B832B8C930F900F900F900F9061
:1001F000CF91DF910895DF93CF9300D00F92CDB7C9
:10020000DEB789836A834B8389816A810E944900B2
:1002100089816B810E9486000F900F900F90CF9183
:10022000DF910895DF93CF9300D000D00F92CDB728
:10023000DEB789837B836A838A819B810097C1F1C2
:100240008981282F30E03D832C838C819D8100970C
:1002500031F02C813D8121303105B1F029C0A9E573
:10026000B0E0E9E5F0E0808181608C93A9E5B0E041
:10027000E9E5F0E080818D7F8C938A819B8190936A
:1002800089008093880014C0A9E5B0E0E9E5F0E0BA
:10029000808180648C93A9E5B0E0E9E5F0E080819D
:1002A0008F778C938A819B8190938B0080938A00B7
:1002B0000F900F900F900F900F90CF91DF910895B6
:1002C000DF93CF9300D000D00F92CDB7DEB78983F4
:1002D0007B836A838A819B810097C1F18981282F62
:1002E00030E03D832C838C819D81009731F02C81FF
:1002F0003D8121303105B1F029C0A9E5B0E0E9E543
:10030000F0E0808182608C93A9E5B0E0E9E5F0E05F
:1003100080818E7F8C938A819B8190938D008093C6
:100320008C0014C0A9E5B0E0E9E5F0E080818068C8
:100330008C93A9E5B0E0E9E5F0E080818F7B8C93B8
:100340008A819B8190938F0080938E000F900F90F5
:100350000F900F900F90CF91DF910895DF93CF937F
:1003600000D000D0CDB7DEB789836A838981282F7A
:1003700030E03C832B838B819C81009731F02B8173
:100380003C812130310531F009C0E2E5F0E08A819D
:10039000808304C0E4E4F0E08A8180830F900F90B2
:1003A0000F900F90CF91DF910895DF93CF9300D0FE
:1003B00000D0CDB7DEB789836A838981282F30E0EA
:1003C0003C832B838B819C81009731F02B813C8176
:1003D0002130310531F009C0ECE5F0E08A818083FD
:1003E00004C0E3E4F0E08A8180830F900F900F90C7
:1003F0000F90CF91DF9108951F920F920FB60F9239
:1004000011242F933F934F935F936F937F938F9319
:100410009F93AF93BF93EF93FF93DF93CF93CDB7AA
:10042000DEB78091880090918900009729F0E091D3
:100430008800F09189000995CF91DF91FF91EF91AC
:10044000BF91AF919F918F917F916F915F914F91EC
:100450003F912F910F900FBE0F901F9018951F92F4
:100460000F920FB60F9211242F933F934F935F93E8
:100470006F937F938F939F93AF93BF93EF93FF936C
:10048000DF93CF93CDB7DEB780918C0090918D0034
:10049000009729F0E0918C00F0918D000995CF91A3
:1004A000DF91FF91EF91BF91AF919F918F917F91DC
:1004B0006F915F914F913F912F910F900FBE0F90D1
:1004C0001F9018951F920F920FB60F9211242F9321
:1004D0003F934F935F936F937F938F939F93AF93CC
:1004E000BF93EF93FF93DF93CF93CDB7DEB78091A8
:1004F0008A0090918B00009729F0E0918A00F0919A
:100500008B000995CF91DF91FF91EF91BF91AF9152
:100510009F918F917F916F915F914F913F912F911B
:100520000F900FBE0F901F9018951F920F920FB64D
:100530000F9211242F933F934F935F936F937F9369
:100540008F939F93AF93BF93EF93FF93DF93CF93DB
:10055000CDB7DEB780918E0090918F00009729F083
:10056000E0918E00F0918F000995CF91DF91FF917E
:10057000EF91BF91AF919F918F917F916F915F911B
:100580004F913F912F910F900FBE0F901F90189594
:10059000DF93CF93CDB7DEB72CE433E080E0B90131
:1005A0000E9460010E94CB0380E063E042E00E9471
:1005B000FB0080E06DE70E94D501CF91DF910895A7
:1005C000DF93CF93CDB7DEB727970FB6F894DEBF92
:1005D0000FBECDBF9A838983E981FA818081282F5C
:1005E00030E0C901880F991F880F991F820F931F50
:1005F00080579F4F29813A819C838B833E832D8333
:1006000085E08F83ED81FE8100808D819E81019642
:100610009E838D83EB81FC8100828B819C8101967E
:100620009C838B839F8191509F83EF81EE2351F7B1
:1006300027960FB6F894DEBF0FBECDBFCF91DF91E6
:100640000895DF93CF9300D0CDB7DEB79A83898327
:10065000E981FA818081882F90E0FC01E156FF4F0B
:1006600081E080830F900F90CF91DF910895DF9309
:10067000CF9300D0CDB7DEB79A838983E981FA8121
:100680008081882F90E0FC01E156FF4F10820F908F
:100690000F90CF91DF910895EF92FF920F931F93E8
:1006A000DF93CF9300D0CDB7DEB78091A2009091B9
:1006B000A300A091A400B091A5000196A11DB11DB9
:1006C0008093A2009093A300A093A400B093A500F0
:1006D0001A82198251C089819A81FC01E156FF4F2B
:1006E0008081813009F443C0E090A200F090A30023
:1006F0000091A4001091A50029813A81C901880FB9
:10070000991F880F991F820F931FFC01EF56FF4F0F
:10071000808191819C0140E050E0C801B7010E94B6
:10072000C006DC01CB010097A105B10501F52981C7
:100730003A81C901880F991F880F991F820F931F53
:10074000FC01ED56FF4F80819181009781F0298156
:100750003A81C901880F991F880F991F820F931F33
:10076000FC01ED56FF4F0190F081E02D0995898144
:100770009A8101969A83898389819A818330910530
:1007800008F4A9CF0F900F90CF91DF911F910F9197
:10079000FF90EF900895DF93CF93CDB7DEB7AFE52D
:1007A000B0E0EFE5F0E0808180688C93CF91DF913D
:1007B0000895DF93CF93CDB7DEB7AFE5B0E0EFE5B7
:1007C000F0E080818F778C93CF91DF910895DF9354
:1007D000CF93CDB7DEB72A970FB6F894DEBF0FBE22
:1007E000CDBF8F8368878F810E948A048E838F811B
:1007F0000E94BF048D838D81282F30E0C901880FAE
:10080000991F820F931F0196880F991FFC01E05AD0
:10081000FF4F808191819C838B838D81282F30E0D5
:10082000C901880F991F820F931F880F991FFC0120
:10083000E05AFF4F808191819A8389838885282F90
:1008400030E03A87298789859A8581309105F9F0CA
:1008500029853A852230310571F189859A8500977D
:1008600009F04FC0EB81FC818081482F8E81282FB9
:1008700030E081E090E0022E02C0880F991F0A94B8
:10088000E2F780958423EB81FC8180833AC0EB8181
:10089000FC818081482F8E81282F30E081E090E01C
:1008A000022E02C0880F991F0A94E2F7842BEB8175
:1008B000FC81808326C0E981FA818081482F8E8166
:1008C000282F30E081E090E002C0880F991F2A9520
:1008D000E2F7842BE981FA818083EB81FC818081BE
:1008E000482F8E81282F30E081E090E0022E02C058
:1008F000880F991F0A94E2F780958423EB81FC818D
:1009000080832A960FB6F894DEBF0FBECDBFCF917D
:10091000DF910895DF93CF9300D0CDB7DEB7898301
:100920008981883018F489818A8323C0898188303D
:1009300040F08981803128F48981982F98509A83DA
:1009400018C08981803140F08981883128F48981FB
:10095000982F90519A830DC08981883140F0898108
:10096000803228F48981982F98519A8302C08FEFA2
:100970008A838A810F900F90CF91DF910895DF9342
:10098000CF9300D0CDB7DEB789838981883010F44A
:100990001A821DC08981883030F08981803118F435
:1009A00081E08A8314C08981803130F08981883167
:1009B00018F482E08A830BC08981883130F0898104
:1009C000803218F483E08A8302C08FEF8A838A81A1
:1009D0000F900F90CF91DF910895DF93CF93CDB714
:1009E000DEB728970FB6F894DEBF0FBECDBF8D835C
:1009F0006E838D810E948A048C838D810E94BF0446
:100A00008B838B81282F30E0C901880F991F820FBB
:100A1000931F880F991FFC01E05AFF4F808191813D
:100A20009A8389838E81282F30E038872F838F81A6
:100A3000988581309105F1F02F813885223031057C
:100A400069F18F8198850097E1F5E981FA818081CC
:100A5000482F8C81282F30E081E090E0022E02C0E8
:100A6000880F991F0A94E2F780958423E981FA811F
:100A7000808327C0E981FA818081482F8C81282FCB
:100A800030E081E090E0022E02C0880F991F0A94A6
:100A9000E2F7842BE981FA81808313C0E981FA812E
:100AA0008081482F8C81282F30E081E090E0022E59
:100AB00002C0880F991F0A94E2F78427E981FA811E
:100AC000808328960FB6F894DEBF0FBECDBFCF91BE
:100AD000DF910895DF93CF9300D000D00F92CDB770
:100AE000DEB78D838D810E948A048C838D810E9464
:100AF000BF048B838B81282F30E0C901880F991F99
:100B0000820F931F880F991FFC01EC59FF4F8081C2
:100B100091819A838983E981FA818081282F30E04D
:100B20008C81882F90E0A90102C0559547958A9540
:100B3000E2F7CA0181700F900F900F900F900F9005
:100B4000CF91DF910895DF93CF93CDB7DEB728978C
:100B50000FB6F894DEBF0FBECDBF8D836E838D813F
:100B6000282F30E0C901880F991F820F931F01962B
:100B7000880F991FFC01E05AFF4F808191819C836F
:100B80008B838D81282F30E0C901880F991F820F38
:100B9000931F880F991FFC01E05AFF4F80819181BC
:100BA0009A8389838E81282F30E038872F838F8125
:100BB00098858130910569F02F8138852230310583
:100BC00069F08F819885009781F4EB81FC81108218
:100BD0000CC0EB81FC818FEF808307C0E981FA8133
:100BE0008FEF8083EB81FC81108228960FB6F894FA
:100BF000DEBF0FBECDBFCF91DF910895DF93CF93BE
:100C000000D000D0CDB7DEB78B836C838B81282FCB
:100C100030E0C901880F991F820F931F880F991F19
:100C2000FC01E05AFF4F808191819A838983E98199
:100C3000FA818C8180830F900F900F900F90CF914D
:100C4000DF910895DF93CF93CDB7DEB76E970FB6E0
:100C5000F894DEBF0FBECDBF80E061E00E94A30527
:100C6000CE010196998B888BE2E8F0E0FB8BEA8B52
:100C7000F5E0FC8BEA89FB8900808A899B890196D3
:100C80009B8B8A8BE889F9890082888999890196EA
:100C9000998B888B9C8991509C8BEC89EE2351F722
:100CA000CE0106969E8B8D8BEDE7F0E0F88FEF8BF3
:100CB000F5E0F98FEF89F88D00808F89988D019686
:100CC000988F8F8BED89FE8900828D899E89019690
:100CD0009E8B8D8B998D9150998FE98DEE2351F7D5
:100CE000CE010B969B8F8A8FE8E7F0E0FD8FEC8FAB
:100CF000F5E0FE8FEC8DFD8D00808C8D9D8D019635
:100D00009D8F8C8FEA8DFB8D00828A8D9B8D019645
:100D10009B8F8A8F9E8D91509E8FEE8DEE2351F783
:100D2000CE0101960E94E002CE0106960E94E002EA
:100D3000CE010B960E94E0020E94C802FFCFDF9313
:100D4000CF93CDB7DEB780E062E00E94ED04CF9193
:100D5000DF910895DF93CF93CDB7DEB781E062E0F6
:100D60000E94ED04CF91DF910895DF93CF93CDB72B
:100D7000DEB782E062E00E94ED04CF91DF9108953A
:100D8000A1E21A2EAA1BBB1BFD010DC0AA1FBB1F8F
:100D9000EE1FFF1FA217B307E407F50720F0A21B01
:100DA000B30BE40BF50B661F771F881F991F1A946E
:100DB00069F760957095809590959B01AC01BD0198
:080DC000CF010895F894FFCF64
:100DC8003B003A003900380037003600350034005F
:100DD800330032003100300002B80BB50601D007ED
:080DE800AA0600E8039F0600C3
:00000001FF
