S010000044494F5F746573742E7372656319
S11300000C942A000C943F000C943F000C943F0085
S11300100C943F000C943F000C943F000C943F0060
S11300200C943F000C943F000C943F000C943F0050
S11300300C943F000C943F000C943F000C943F0040
S11300400C943F000C943F000C943F000C943F0030
S11300500C943F0011241FBECFE5D8E0DEBFCDBF16
S113006010E0A0E6B0E0ECE5F3E002C005900D92EC
S1130070A837B107D9F70E947F010C94AC010C9406
S11300800000CF93DF93883070F028EF280F2830DA
S113009058F020EF280F283038F028EE280F2830A9
S11300A018F02FEF01C0282F883068F098EF980FD0
S11300B0983058F090EF980F983048F08851883075
S11300C040F483E007C080E005C081E003C082E023
S11300D001C08FEF6130E9F018F0623091F159C03E
S11300E090E0FC01EE0FFF1FE80FF91FEE0FFF1F5A
S11300F0E05AFF4F0280F381E02D308181E090E0EF
S113010002C0880F991F2A95E2F780958323808384
S113011040C090E0FC01EE0FFF1FE80FF91FEE0F47
S1130120FF1FE05AFF4F0280F381E02D308181E010
S113013090E002C0880F991F2A95E2F7832B8083F1
S113014028C090E0FC01EE0FFF1FDF01A80FB91FCC
S1130150AA0FBB1FA05ABF4F0D90BC91A02D6C914C
S113016041E050E0EA0102C0CC0FDD1F2A95E2F71E
S11301709E01362F322B3C93E80FF91FEE0FFF1F21
S1130180E05AFF4F0280F381E02D808120952823DF
S11301902083DF91CF910895883070F028EF280FE5
S11301A0283058F020EF280F283038F028EE280F98
S11301B0283018F02FEF01C0282F883068F098EF0E
S11301C0980F983058F090EF980F983048F0885175
S11301D0883040F483E007C080E005C081E003C0BC
S11301E082E001C08FEF6130E9F018F0623091F1E4
S11301F0089590E0FC01EE0FFF1FE80FF91FEE0FCA
S1130200FF1FE05AFF4F0190F081E02D308181E023
S113021090E002C0880F991F2A95E2F78095832306
S11302208083089590E0FC01EE0FFF1FE80FF91F93
S1130230EE0FFF1FE05AFF4F0190F081E02D308157
S113024081E090E002C0880F991F2A95E2F7832B82
S11302508083089590E0FC01EE0FFF1FE80FF91F63
S1130260EE0FFF1FE05AFF4F0190F081E02D308127
S113027081E090E002C0880F991F2A95E2F7832756
S113028080830895883070F028EF280F283058F0C4
S113029020EF280F283038F028EE280F283018F0E7
S11302A02FEF01C0282F883068F098EF980F98300E
S11302B058F090EF980F983048F08851883040F407
S11302C083E007C080E005C081E003C082E001C094
S11302D08FEF90E0FC01EE0FFF1FE80FF91FEE0F08
S11302E0FF1FE05AFF4F0480F581E02D808190E0EC
S11302F002C0959587952A95E2F78170089561E08B
S113030080E00E94410062E088E10E944100C0E078
S1130310CC2369F062E080E00E94CC002FE58AEEF5
S113032090E0215080409040E1F700C0000088E157
S11303300E9442018111ECCF2FE58AEE90E021501A
S113034080409040E1F700C0000088E10E94420133
S10F03508130F1F6C827DCCFF894FFCF11
S113035C3B003A00390038003700360035003400D1
S10B036C3300320031003000BF
S9030000FC
