S01700005350495F5445535428534C415645292E73726563B6
S11300000C942A000C9447000C9447000C9447006D
S11300100C9447000C9447000C9447000C94470040
S11300200C9447000C9447000C9447000C94470030
S11300300C9447000C9447000C9447000C94470020
S11300400C9447000C9447000C9447000C94470010
S11300500C94470011241FBECFE5D8E0DEBFCDBF0E
S113006010E0A0E6B0E0E4E4F3E002C005900D92F5
S1130070A837B107D9F720E0A8E7B0E001C01D9286
S1130080A937B207E1F70E9447010C94A0010C9430
S11300900000883070F028EF280F283058F020EF47
S11300A0280F283038F028EE280F283018F02FEFCA
S11300B001C0282F883068F098EF980F983058F0D6
S11300C090EF980F983048F08851883040F483E0DE
S11300D007C080E005C081E003C082E001C08FEF6B
S11300E090E0FC01EE0FFF1FDF01A80FB91FAA0F5C
S11300F0BB1FA05ABF4F12960D90BC91A02DE80FC4
S1130100F91FEE0FFF1FE05AFF4F0190F081E02D21
S1130110613081F018F06230C1F008953C9181E0C3
S113012090E002C0880F991F2A95E2F780958323F7
S11301308C9308953C9181E090E002C0880F991F50
S11301402A95E2F7832B8C930895308181E090E027
S113015002C0880F991F2A95E2F7932F982B90835A
S11301609C91809589238C930895883070F028EFB2
S1130170280F283058F020EF280F283038F028EEC8
S1130180280F283018F02FEF01C0282F883068F08E
S113019098EF980F983058F090EF980F983048F0F7
S11301A08851883040F483E007C080E005C081E0D6
S11301B003C082E001C08FEF90E0FC01EE0FFF1F4F
S11301C0E80FF91FEE0FFF1FE05AFF4F0190F08177
S11301D0E02D613081F018F06230C1F00895308173
S11301E081E090E002C0880F991F2A95E2F780957C
S11301F0832380830895308181E090E002C0880FDA
S1130200991F2A95E2F7832B80830895308181E03A
S113021090E002C0880F991F2A95E2F78327808314
S1130220089590E0FC01EE0FFF1FDF01A80FB91F36
S1130230AA0FBB1FA05ABF4F12960D90BC91A02DC0
S1130240E80FF91FEE0FFF1FE05AFF4F0190F081F6
S1130250E02D613031F018F0623031F008951C92D5
S113026008958FEF8C9308958FEF80831C920895E7
S113027090E0FC01EE0FFF1FE80FF91FEE0FFF1FC8
S1130280E05AFF4F0190F081E02D6083089561E012
S113029080E00E94110160E08CE00E94B50060E003
S11302A08DE00E94490061E08EE00E94490060E018
S11302B08FE00E94490062E080E00E94700181E0CA
S11302C00E949B018093780087EC90E00197F1F7FE
S11302D000C000006091780080E00E943801EFCFF8
S11302E0843040F49DB1937F9DB9880F880F8DB9F8
S11302F081E001C083E08130D1F4613019F06230D3
S113030031F00AC08DB180628DB981E006C08DB133
S11303108F7D8DB981E001C084E0813051F48DB1CD
S11303208F7E8DB98DB180648DB981E0089583E0AD
S1130330089584E008958FB9779BFECF8FB1089517
S1070340F894FFCF5B
S11303443B003A00390038003700360035003400E9
S10B03543300320031003000D7
S9030000FC
