S0110000536572766F546573742E7372656364
S11300000C942A000C9447000C9447000C9447006D
S11300100C9447000C9447000C9447000C94470040
S11300200C9447000C9447000C9447000C94470030
S11300300C9447000C9447000C9447000C94470020
S11300400C9447000C9447000C9447000C94470010
S11300500C94470011241FBECFE5D8E0DEBFCDBF0E
S113006010E0A0E6B0E0E2EFF4E002C005900D92EB
S1130070A837B107D9F720E0A8E7B0E001C01D9286
S1130080A837B207E1F70E94F1000C9477020C94B0
S113009000004F925F926F927F92AF92BF92CF9285
S11300A0DF92EF92FF920F931F93CF93DF93CDB71D
S11300B0DEB729013A019B01AC012419350946092F
S11300C0570989899A89AB89BC89BC01CD016A1910
S11300D07B098C099D090E940C02A801970124192F
S11300E03509460957090E941C02C601B501620F71
S11300F0731F841F951FDF91CF911F910F91FF9064
S1130100EF90DF90CF90BF90AF907F906F905F9013
S11301104F9008950E94A90161E08CE10E943D0185
S113012062E082E00E94DD0161E08DE10E943D0118
S113013062E081E00E94DD0180E29EE40E94080208
S11301406EE082E00E94AD010895AF92BF92CF921B
S1130150DF92EF92FF920F931F93CF939B01265A46
S11301603F4F253B310580F5C82F072E000C880B27
S1130170990B1F921F9227E02F9320ED2F930F2EA0
S1130180F8EEAF2EF3E0BF2EC12CD12CF02D1AE5E2
S1130190E12EF12C00E010E026EA3FEF4FEF5FEF95
S11301A00E9449000F900F900F900F90CC3139F0BE
S11301B0CD3161F4CB010E94000282E008C0CB0182
S11301C00E94040282E003C083E001C081E0CF9179
S11301D01F910F91FF90EF90DF90CF90BF90AF9061
S11301E008950E948A00C6EADFEF15C066277727C4
S11301F06C1B7D0B8CE10E94A500BE018DE10E9469
S1130200A5002FE788E391E0215080409040E1F77A
S113021000C000002196CB35D10544F32FEF80E7D1
S113022092E0215080409040E1F700C00000CAE510
S1130230D0E015C0662777276C1B7D0B8CE10E94EC
S1130240A500BE018DE10E94A5002FE788E391E09F
S1130250215080409040E1F700C000002197C63A49
S11302602FEFD2073CF78FEF90E722E081509040C8
S11302702040E1F700C00000B6CF883070F028EFCE
S1130280280F283058F020EF280F283038F028EEB7
S1130290280F283018F02FEF01C0282F883068F07D
S11302A098EF980F983058F090EF980F983048F0E6
S11302B08851883040F483E007C080E005C081E0C5
S11302C003C082E001C08FEF90E0FC01EE0FFF1F3E
S11302D0DF01A80FB91FAA0FBB1FA05ABF4F129668
S11302E00D90BC91A02DE80FF91FEE0FFF1FE05AEF
S11302F0FF4F0190F081E02D613081F018F0623001
S1130300C1F008953C9181E090E002C0880F991FEC
S11303102A95E2F7809583238C9308953C9181E09C
S113032090E002C0880F991F2A95E2F7832B8C93E3
S11303300895308181E090E002C0880F991F2A95CA
S1130340E2F7932F982B90839C91809589238C932B
S113035008958FB780688FBF0895883040F49EB5A4
S1130360987F9EBD9EB5892B8EBD81E001C082E041
S11303708130F9F46031B8F46D30B9F08FB58C7F09
S11303808FBD8EB5877E8EBD8FB5962F9370892BCA
S11303908FBD2EB5862F90E0880F991F8871822B10
S11303A08EBD81E003C082E001C082E0813019F497
S11303B0089582E0089582E008956430E8F481307D
S11303C019F0823069F01AC08FB58F738FBD8FB565
S11303D090E4699FB0011124682B6FBD81E00895FA
S11303E08FB58F7C8FBD8FB590E1699FB0011124CB
S11303F0682B6FBD81E0089582E0089582E008953E
S11304009BBD8ABD81E0089599BD88BD81E00895B2
S113041097BD86BD81E00895DB018F939F930E9471
S11304203B02BF91AF91A29F800D911DA39F900DA0
S1130430B29F900D11240895052E97FB1EF400948D
S11304400E94330257FD07D00E94460207FC03D0E6
S11304504EF40C94330250954095309521953F4FBE
S11304604F4F5F4F089590958095709561957F4F9C
S11304708F4F9F4F08950E946802A59F900DB49FCF
S1130480900DA49F800D911D11240895A1E21A2EB0
S1130490AA1BBB1BFD010DC0AA1FBB1FEE1FFF1F24
S11304A0A217B307E407F50720F0A21BB30BE40B74
S11304B0F50B661F771F881F991F1A9469F76095BB
S11304C07095809590959B01AC01BD01CF01089575
S11304D0A29FB001B39FC001A39F700D811D112481
S11304E0911DB29F700D811D1124911D0895F894E2
S10504F0FFCF38
S11304F23B003A003900380037003600350034003A
S10B0502330032003100300027
S9030000FC
