S012000055534152545F544553542E73726563E4
S11300000C942A000C943C000C943C000C943C008E
S11300100C943C000C943C000C943C000C943C006C
S11300200C943C000C943C000C943C000C943C005C
S11300300C943C000C943C000C943C000C943C004C
S11300400C943C000C943C000C943C000C943C003C
S11300500C943C0011241FBECFE5D8E0DEBFCDBF19
S113006020E0A0E6B0E001C01D92A236B207E1F79D
S11300700E943E000C941B010C94000040E060E0E0
S113008083E00E949C0080E895E20E94C30081E422
S113009090E00E94E9002FEF89E698E1215080402A
S11300A09040E1F700C00000F2CF8830C0F4843003
S11300B0C1F08530C1F08630C1F0809361009BB1FE
S11300C0282F2470922B9BB9837090E0880F991F7E
S11300D090916000892B8093600082E0089581E014
S11300E0089581E0089581E0089581E008958430C1
S11300F068F4813069F020E1829FC001112490915D
S11301006000892B8093600082E0089583E0089565
S113011083E00895823070F490E0880F991F880F6F
S1130120991F880F991F90916000892B809360001C
S113013082E0089584E00895CF93DF93C62FD42FEF
S113014090E8909360009AB198609AB99AB19260DD
S11301509AB90E945500823071F48C2F0E94770066
S1130160823059F48D2F0E948A00823041F490919C
S1130170600090BD05C081E003C083E001C084E05D
S1130180DF91CF910895A0E0B0E0880F991FAA1FD6
S1130190BB1F880F991FAA1FBB1F9C01AD01220F13
S11301A0331F441F551F220F331F441F551F60E088
S11301B072E18AE790E00E94F9002150310921158B
S11301C080E1380720F429B930BD82E0089585E044
S11301D008955D9BFECF20916100273039F42AB148
S11301E02E7F2AB92AB19170922B9AB98CB982E0E8
S11301F00895A1E21A2EAA1BBB1BFD010DC0AA1F64
S1130200BB1FEE1FFF1FA217B307E407F50720F07B
S1130210A21BB30BE40BF50B661F771F881F991FF6
S11302201A9469F760957095809590959B01AC013F
S10D0230BD01CF010895F894FFCF3B
S9030000FC
