S012000055534152545F544553542E73726563E4
S11300000C942A000C9447000C9447000C9447006D
S11300100C9447000C9447000C9447000C94470040
S11300200C9447000C9447000C9447000C94470030
S11300300C9447000C9447000C9447000C94470020
S11300400C9447000C9447000C9447000C94470010
S11300500C94470011241FBECFE5D8E0DEBFCDBF0E
S113006010E0A0E6B0E0EAE2F4E002C005900D92F0
S1130070A63BB107D9F720E0A6EBB0E001C01D9282
S1130080AA3BB207E1F70E94DC000C9413020C9423
S11300900000883070F028EF280F283058F020EF47
S11300A0280F283038F028EE280F283018F02FEFCA
S11300B001C0282F883068F098EF980F983058F0D6
S11300C090EF980F983048F08851883040F483E0DE
S11300D007C080E005C081E003C082E001C08FEF6B
S11300E090E0FC01EE0FFF1FE80FF91FEE0FFF1F5A
S11300F0E05AFF4F0190F081E02D613081F018F05B
S11301006230C1F00895308181E090E002C0880F30
S1130110991F2A95E2F7809583238083089530817F
S113012081E090E002C0880F991F2A95E2F7832BA3
S113013080830895308181E090E002C0880F991F88
S11301402A95E2F783278083089590E0FC01EE0F5F
S1130150FF1FDF01A80FB91FAA0FBB1FA05ABF4F73
S113016012960D90BC91A02DE80FF91FEE0FFF1F02
S1130170E05AFF4F0190F081E02D613031F018F02A
S1130180623031F008951C9208958FEF8C93089596
S11301908FEF80831C920895CF93DF93EC0106C008
S11301A090E00E94E101823009F421968881811156
S11301B0F7CFDF91CF91089541E062E083E00E94A0
S11301C06F0180E895E20E94960161E080E00E9460
S11301D0A50086EB90E00E94BC018091B60090914E
S11301E0B7008134910549F461E080E00E94490040
S11301F088E790E00E94CC00ECCF8234910549F46A
S113020061E081E00E94490087E890E00E94CC0010
S1130210E0CF8334910549F461E082E00E94490013
S113022086E990E00E94CC00D4CF60E080E00E9498
S1130230490060E081E00E94490060E082E00E94A1
S1130240490085EA90E00E94CC00C3CF8830C0F416
S11302508430C1F08530C1F08630C1F08093B9009C
S11302609BB1282F2470922B9BB9837090E0880F48
S1130270991F9091B800892B8093B80082E008956B
S113028081E0089581E0089581E0089581E0089572
S1130290843068F4813069F020E1829FC001112428
S11302A09091B800892B8093B80082E0089583E090
S11302B0089583E00895811107C08091B800877F75
S11302C08093B80082E00895813039F48091B800B9
S11302D088608093B80082E0089584E00895CF9305
S11302E0DF93C62FD42F90E89093B8009AB198600A
S11302F09AB99AB190619AB90E942601823071F438
S11303008C2F0E944801823059F48D2F0E945B018A
S1130310823041F49091B80090BD05C081E003C0E3
S113032083E001C084E0DF91CF910895A0E0B0E0C4
S1130330880F991FAA1FBB1F880F991FAA1FBB1FD5
S11303409C01AD01220F331F441F551F220F331F81
S1130350441F551F60E072E18AE790E00E94F101BA
S113036021503109211580E1380720F429B910BC46
S113037082E0089585E008955F9BFECF5A9919C0E5
S11303805B9919C05C9919C03CB1232F30E0FC0182
S1130390318320834091B900473089F44AB14695AE
S11303A04170742F60E0262B372B3183208382E049
S11303B0089588E0089587E0089589E0089582E02B
S11303C008955D9BFECF2091B900273039F42AB1FE
S11303D02E7F2AB92AB19170922B9AB98CB982E0F6
S11303E00895A1E21A2EAA1BBB1BFD010DC0AA1F72
S11303F0BB1FEE1FFF1FA217B307E407F50720F08A
S1130400A21BB30BE40BF50B661F771F881F991F04
S11304101A9469F760957095809590959B01AC014D
S10D0420BD01CF010895F894FFCF49
S113042A3B003A0039003800370036003500340002
S113043A33003200310030000D0A4C454431204962
S113044A53204F4E0D0A000D0A4C4544322049539D
S113045A204F4E0D0A000D0A4C45443320495320BF
S113046A4F4E0D0A000D0A4C454473204953204F40
S109047A46460D0A0000D5
S9030000FC
