:100000000C942A000C9447000C9447000C94470071
:100010000C9447000C9447000C9447000C94470044
:100020000C9447000C9447000C9447000C94470034
:100030000C9447000C9447000C9447000C94470024
:100040000C94A1000C9447000C9447000C944700BA
:100050000C94470011241FBECFE5D8E0DEBFCDBF12
:1000600010E0A0E6B0E0EEEEF3E002C005900D92E5
:10007000A238B107D9F720E0A2E8B0E001C01D9294
:10008000A139B207E1F70E94C7010C94F5010C9465
:10009000000096B1906896B997B19F7397B927B150
:1000A00030E4839FC0011124822B87B9677086B129
:1000B000887F86B986B1682B66B981E00895FC0116
:1000C000809160008530E1F1838194810097A9F1EE
:1000D000258136812115310591F130938B002093D4
:1000E0008A00909383008093820081819281909313
:1000F00085008093840080818093870087B18F7D05
:1001000087B910928600E0918400F091850080818B
:10011000877097B1907F97B997B1892B87B986B1CE
:10012000806486B986B1886086B985E08093600076
:1001300082E080938C0081E0089583E0089583E05D
:1001400008951F920F920FB60F9211242F933F9391
:100150004F935F936F937F938F939F93AF93BF93CF
:10016000EF93FF9380918C00813019F08230A9F0D9
:1001700048C0E0918800F091890084B195B19183E5
:10018000808384E080936000E0918A00F0918B008E
:10019000099586B1877F86B934C080918600E82FA3
:1001A000F0E0EE0FFF1F2091820030918300E20FFC
:1001B000F31F24B135B1318320838F5F8093860094
:1001C0009091870089130CC084E080936000E091D7
:1001D0008A00F0918B00099586B1877F86B911C09E
:1001E000E0918400F0918500E80FF11D8081877017
:1001F00097B1907F97B997B1892B87B986B1806401
:1002000086B9FF91EF91BF91AF919F918F917F91AF
:100210006F915F914F913F912F910F900FBE0F9073
:100220001F901895883070F028EF280F283058F06C
:1002300020EF280F283038F028EE280F283018F04B
:100240002FEF01C0282F883068F098EF980F983072
:1002500058F090EF980F983048F08851883040F46B
:1002600083E007C080E005C081E003C082E001C0F8
:100270008FEF90E0FC01EE0FFF1FDF01A80FB91F09
:10028000AA0FBB1FAF59BF4F12960D90BC91A02D66
:10029000E80FF91FEE0FFF1FEF59FF4F0190F0819C
:1002A000E02D613081F018F06230C1F008953C918A
:1002B00081E090E002C0880F991F2A95E2F78095AF
:1002C00083238C9308953C9181E090E002C0880FD5
:1002D000991F2A95E2F7832B8C930895308181E052
:1002E00090E002C0880F991F2A95E2F7932F982B70
:1002F00090839C91809589238C93089590E0FC01D4
:10030000EE0FFF1FDF01A80FB91FAA0FBB1FAF59C8
:10031000BF4F12960D90BC91A02DE80FF91FEE0F64
:10032000FF1FEF59FF4F0190F081E02D613031F058
:1003300018F0623031F008951C9208958FEF8C937D
:1003400008958FEF80831C92089590E0FC01EE0FDA
:10035000FF1FE80FF91FEE0FFF1FEF59FF4F01902E
:10036000F081E02D608308958FB780688FBF089576
:10037000CF93DF93CDE8D0E0688182E00E94A501B1
:100380006A8181E00E94A501DF91CF910895CF930A
:10039000DF93CDB7DEB727970FB6F894DEBF0FBE59
:1003A000CDBF60E080E00E94120160E081E00E9429
:1003B000120161E081E00E947E0161E082E00E9422
:1003C0007E010E94B40167E080E00E94490087E05E
:1003D000EBE7F0E0DE01119601900D928A95E1F7CE
:0E03E000CE0101960E945F00F2CFF894FFCF8D
:1003EE00043B003A0039003800370036003500343F
:1003FE0000330032003100300000010279008D0020
:02040E00B80133
:00000001FF
