S01000004144435F746573742E737265632D
S11300000C942A000C943F000C943F000C943F0085
S11300100C943F000C943F000C943F000C943F0060
S11300200C943F000C943F000C943F000C943F0050
S11300300C943F000C943F000C943F000C943F0040
S11300400C943F000C943F000C943F000C943F0030
S11300500C943F0011241FBECFE5D8E0DEBFCDBF16
S113006010E0A0E6B0E0EEE9F2E002C005900D92E7
S1130070A837B107D9F70E9426010C944D010C94BE
S1130080000096B1906896B997B19F7397B927B15C
S113009030E4839FC0011124822B87B9677086B135
S11300A0887F86B986B1682B66B981E0089597B1D7
S11300B09F7D97B9877097B1907F97B997B1892B36
S11300C087B986B1806486B980E090E0DC0103C022
S11300D00196A11DB11D349906C0803523EC920709
S11300E0A105B105A9F78035934CA105B10551F0DF
S11300F086B1806186B984B195B1FB019183808317
S113010081E0089582E00895883070F028EF280F88
S1130110283058F020EF280F283038F028EE280F28
S1130120283018F02FEF01C0282F883068F098EF9E
S1130130980F983058F090EF980F983048F0885105
S1130140883040F483E007C080E005C081E003C04C
S113015082E001C08FEF90E0FC01EE0FFF1FDF0192
S1130160A80FB91FAA0FBB1FA05ABF4F12960D901C
S1130170BC91A02DE80FF91FEE0FFF1FE05AFF4FAF
S11301800190F081E02D613081F018F06230C1F00F
S113019008953C9181E090E002C0880F991F2A9550
S11301A0E2F7809583238C9308953C9181E090E05D
S11301B002C0880F991F2A95E2F7832B8C93089528
S11301C0308181E090E002C0880F991F2A95E2F700
S11301D0932F982B90839C91809589238C930895D9
S11301E090E0FC01EE0FFF1FDF01A80FB91FAA0F5B
S11301F0BB1FA05ABF4F12960D90BC91A02DE80FC3
S1130200F91FEE0FFF1FE05AFF4F0190F081E02D20
S1130210613031F018F0623031F008951C92089585
S11302208FEF8C9308958FEF80831C92089590E054
S1130230FC01EE0FFF1FE80FF91FEE0FFF1FE05A3E
S1130240FF4F0190F081E02D60830895CF93DF93F9
S113025000D0CDB7DEB760E080E00E94840061E0AA
S113026081E00E94F00061E082E00E94F00067E01B
S113027080E00E9441001A821982BE016F5F7F4FA5
S113028080E00E9457008130C1F769810E94170104
S11102906A8182E00E941701F0CFF894FFCF3C
S113029E3B003A0039003800370036003500340090
S10B02AE33003200310030007E
S9030000FC
